:020000040800F2
:10000000600B00205D020008B3340008BB3100081B
:10001000B1340008C5070008C13D00080000000019
:100020000000000000000000000000005D35000836
:10003000870A0008000000000D350008E5370008B9
:1000400077020008770200087702000877020008AC
:10005000770200087702000877020008770200089C
:10006000770200087702000877020008770200088C
:10007000770200087702000877020008770200087C
:10008000770200087702000877020008770200086C
:10009000413D000877020008770200087702000857
:1000A000770200087702000877020008770200084C
:1000B0007702000875380008770200087702000808
:1000C000770200087702000877020008770200082C
:1000D000770200087702000877020008770200081C
:1000E000770200087702000877020008770200080C
:1000F00077020008770200087702000877020008FC
:1001000077020008000000000000000077020008ED
:1001100077020008770200087702000877020008DB
:10012000150A000877020008770200087702000825
:1001300077020008770200080000000000000000BD
:10014000770200087702000877020008000000002C
:10015000000000000000000000000000000000009F
:10016000770200087702000877020008770200088B
:10017000770200087702000877020008770200087B
:10018000770200087702000800000000000000006D
:100190007702000800F002F800F050F80AA090E89A
:1001A000000C82448344AAF10107DA4501D100F032
:1001B00045F8AFF2090EBAE80F0013F0010F18BFAF
:1001C000FB1A43F001031847884C0000A84C0000BC
:1001D0000A4410F8014B14F00F0508BF10F8015B3A
:1001E000240908BF10F8014B6D1E05D010F8013B23
:1001F0006D1E01F8013BF9D1641E03D0641E01F8A5
:10020000015BFBD19142E4D370470000002300243E
:1002100000250026103A28BF78C1FBD8520728BF16
:1002200030C148BF0B6070471FB504F0D0FD9DE89A
:10023000030000F047F91FBD10B510BD00F0AEF986
:100240001146FFF7F1FF04F08BF800F0CCF903B48E
:10025000FFF7F2FF03BC00F0FDF9000009488047FA
:1002600009480047FEE7FEE7FEE7FEE7FEE7FEE798
:10027000FEE7FEE7FEE7FEE704480549054A064BB0
:1002800070470000653800089501000860050020EF
:10029000600B0020600700206007002070B5064654
:1002A00000F0F4F8056806F10B0020F00704B442F2
:1002B0009CBF002070BD2B466A68BAB11068A0428E
:1002C00010D304F1080188423CBF5068586007D33E
:1002D0005168101941601168091B01605860146071
:1002E000101D70BD13465268002AE7D121462846EA
:1002F00000F0D4F80028DED170BD70B50446051FAB
:1003000000F0C4F80068002C14BF446870BD002CD5
:1003100018BFAC423CBF20466468F8D301680A1895
:10032000AA4218BF456003D12A68054611440160FE
:1003300028684119A1421CBF6C6070BD616869608A
:1003400021680844286070BD53EA020C00F06980FF
:100350002DE9F04B4FF00006002B1FBFB3FA83F5D9
:1003600003FA05F424FA05F65E4012BF1643B2FA0A
:1003700082F502FA05F4C5F120051EBF22FA05FC3C
:1003800044EA0C04203556EA044C4FEA144418BFE2
:10039000641C4FF000084FF00009904271EB030C11
:1003A00039D3002919BFB1FA81F701FA07F6B0FA7B
:1003B00080F700FA07F6C7F120071EBF20FA07FCF6
:1003C00046EA0C062037B6FBF4FCA7EB0507103F06
:1003D00007F01F0BCBF120060CFA0BFB2CFA06F6EC
:1003E00044BFB3460026202FA4BF5E464FF0000B4B
:1003F0005BEA060C08BF4FF0010B19EB0B09ABFBD6
:10040000027C48EB0608C01B06FB02CC0BFB03CCAE
:1004100071EB0C01C1E70B46024641464846BDE878
:10042000F08B13B54FF000004FF00001AFF30080E8
:10043000BDE81C4070474FF0000200B513469446DB
:100440009646203922BFA0E80C50A0E80C50B1F12C
:100450002001BFF4F7AF090728BFA0E80C5048BF40
:100460000CC05DF804EB890028BF40F8042B08BFDE
:10047000704748BF20F8022B11F0804F18BF00F8DA
:10048000012B704770477047704700000048704765
:1004900004050020704770477047704738B5044620
:1004A0000A4600206946AFF30080002808BF38BD27
:1004B00002460099204600F04FF8012038BD012087
:1004C00000F064B8F8B5AFF30080054600200C4694
:1004D000102000BF0646A819A0420DD93246694631
:1004E0000020AFF30080070008BF00F04FF800982D
:1004F000A04218BF0546C419FFF7C8FF05600746AC
:10050000F01D20F007004619284600F00AF8B44212
:1005100008BFF8BDA21B31463868BDE8F84000F0BE
:100520001BB800210160C0E901107047102070471E
:1005300010B500F00DF8006810BD10B5044600F0CD
:1005400007F8046010BD000000487047FC0400205C
:1005500000487047FC040020034640688C46002891
:1005600018BF88423CBF03464068F8D31868184457
:10057000884207D00CF1030020F00700001D411A4B
:10058000521A0146081D0A60FFF7B7BE10B500F009
:1005900039F8BDE8104000F02FB870477546FFF7F6
:1005A000D3FFAE4605006946534620F00700854656
:1005B00018B020B5FFF760FEBDE820404FF0000600
:1005C0004FF000074FF000084FF0000B21F007013B
:1005D000AC46ACE8C009ACE8C009ACE8C009ACE87E
:1005E000C0098D46704710B50446AFF30080204621
:1005F000BDE81040FFF72BBE002801D000F02AB85C
:100600007047000010B5012805D0002103A000F0BC
:1006100027F8012010BD09A1F8E70000534947520F
:10062000544D454D3A204F7574206F6620686561C2
:1006300070206D656D6F7279000000003A2048658A
:100640006170206D656D6F727920636F7272757065
:100650007465640001491820ABBEFEE72600020065
:1006600070B505460C460A2000E06D1C00F011F83C
:1006700035B128780028F8D102E0641C00F009F8B0
:1006800014B120780028F8D1BDE870400A20AFF3FB
:10069000008008B569468DF800000320ABBE08BD98
:1006A0000146406A026C12F0500F03D0806B026B5F
:1006B00008461047016C41F4007101640168C96883
:1006C00011F4406F0CD1417E51B9016C21F480715D
:1006D0000164016CC90403D4016C41F0010101649F
:1006E00000F044BC406A016C41F040010164416C7F
:1006F00041F00401416400F03BBC406A00F037BCAB
:1007000070B504460068816801F00301012926D113
:100710000168C90723D0816801F00D01012910D1BA
:10072000816841F00201816021680320086001F0C6
:10073000CFFB05460FE000BF01F0CAFB401B0228BB
:1007400009D9206C40F010002064606C40F001007A
:100750006064012070BD20688068C007ECD1002073
:1007600070BD000070B504460068816801F00301A7
:10077000012902D10168C90720D18168104A1142BC
:100780000DD1816841F00101816001F0A1FB0546B6
:100790000FE000BF01F09CFB401B022809D9206C30
:1007A00040F010002064606C40F0010060640120A3
:1007B00070BD20680068C043C007EBD1002070BD49
:1007C0003F000080FEE700002DE9F041804616481A
:1007D0000F46069D41681C46164601610CE0124812
:1007E0002946103003F0A6FD30B1404601F058F91B
:1007F0004046216800F0E8FD404600F075FF002803
:10080000EDD0234632463946404600F012FE00281D
:1008100008D0404601F044F940462168BDE8F04167
:1008200000F0D2BDBDE8F081000000202DE9F84FB6
:10083000584C522000254FF00808C4E903582060A6
:10084000C4E90105DFF850B1A1462575D9F85C204F
:10085000CBF81C20D9F86010284604F15C070BF196
:100860001C06CBF8201000BF37F8101026F8101027
:10087000401C0428F8DB484A4FF0280A474B1C323A
:1008800044494748CDF800A0FFF79EFFC4E903584C
:1008900053202060C4E901052575D9F86420CBF800
:1008A0001C20D9F86800CBF82000002007EB40019D
:1008B000098926F81010401C0428F7DB364A374B0C
:1008C0001C3234493648CDF800A0FFF77DFFC4E95B
:1008D000035854202060C4E901052575D9F86C201F
:1008E000CBF81C202B4FD9F870106C37CBF82010A8
:1008F00038883080F88870803889B0807889F080B6
:10090000254AD846254B1C3222492548CDF800A05F
:10091000FFF75AFF5520E5602060C4E90105042077
:1009200020612575B8893080F8897080D9F87420E5
:10093000C8F81C20D9F878100020C8F8201000BF93
:1009400007EB4001098926F81010401C0428F7DB4A
:10095000114A5646114B1C320E491148CDF800A0E1
:10096000FFF732FF5120E5602060C4E90105022055
:100970000949206125752431B8F808000870000A7B
:1009800048700A46054B034905480096FFF71CFFCF
:10099000BDE8F88F4802002000000020340200204B
:1009A000140300201CB50146164803F0C3FC0028C0
:1009B00026D014490122091F134800F05FFC4FF4B0
:1009C0008061124801F076FAFF217920CDE900011B
:1009D0000023912204210A2003F0B8F918B13A212A
:1009E0000B4802F069FD002000F064F820214FF070
:1009F000904001F05FFABDE81C402820FFF716BFC9
:100A00001CBD00000C000020C402002000040048AF
:100A100034020020014801F0A0B80000B804002012
:100A20000B4B01681422994207D20A4B1944B1FBBF
:100A3000F2F189000164084908E0054B5B42194462
:100A4000B1FBF2F18900016401490839C1637047C3
:100A500008040240F8FFFDBF0000024030B590F8E6
:100A600040500124AC40C56B6C600468636043680F
:100A7000102B036803D099600068C26030BD9A6093
:100A80000068C16030BD7047094C00224FF48051AE
:100A9000204601F017FA01229102204601F012FAD5
:100AA000002210214FF0904001F00CFA72B6FEE7E0
:100AB000000C004870B500212DED0A8B82B0022099
:100AC0000B468122CDE900010421142003F03EF9F8
:100AD00018B13A21344802F0EFFC64232322334951
:100AE000334802F093FA18B140212F4802F0E4FC99
:100AF0002E4E9FED30CA9FED308B9FED319B9FEDC9
:100B000032AB9FED33BB002406F13805F7EE00CA87
:100B1000604206EB4000072CC37B027CC17F90F84B
:100B2000200005DA42EA0322204B283323F8142060
:100B300040EA012000EE100A25F81400F8EE400A01
:100B400000EE100AB8EE400A3CEE400A30EE6C1A95
:100B500080EE810A10EE100A04F0C8F841EC100B88
:100B600003F042F953EC182B51EC100B03F0CAFEC2
:100B700053EC192B03F03AFC41EC100B51EC1A0B1F
:100B800053EC102B03F0E6FC53EC1B2B03F0BAFEE6
:100B900003F074FE25F81400641C082CB8DB02B0C6
:100BA000BDEC0A8B70BD0000340200207C020020E6
:100BB0000C04002000FF7F474613E0AC7946333F2A
:100BC0008B33DA3D6C7D6B3F000000000000F03F8E
:100BD0000000000000005940F0B594B000240094DB
:100BE00090F83C202546012A19D0012780F83C7056
:100BF00003689A6852077CD44A681F26052A11D2D6
:100C0000D3F830C002EB4202520096402CEA060CA8
:100C10000E6896404CEA060CC3F830C035E002205E
:100C200014B0F0BD0A2A0FD2D3F834C0521F02EB21
:100C30004202520096402CEA060C0E6896404CEA9E
:100C4000060CC3F834C020E00F2A0FD2D3F838C006
:100C50000A3A02EB4202520096402CEA060C0E6859
:100C600096404CEA060CC3F838C00EE0D3F83CC0FE
:100C70000F3A02EB4202520096402CEA060C0E6834
:100C800096404CEA060CC3F83CC00268936813F027
:100C90000C0F4FF0070374D1D1F800E0BEF10A0F3A
:100CA00010D39669AEF10A0E0EEB4E0C03FA0CFE51
:100CB00026EA0E06D1F808E00EFA0CFE46EA0E0609
:100CC00096610FE0D2F814C00EEB4E0603FA06FE52
:100CD0002CEA0E0CD1F808E00EFA06FE4CEA0E0CD7
:100CE000C2F814C002684E69D2F80CC0CCF3C10C33
:100CF00000E0FDE04FEA4C0C06FA0CF6D1F810E0EB
:100D0000DFF848C2BEF1010F42D0BEF1020F4DD054
:100D1000BEF1030F58D0BEF1040F63D0166E91F8E8
:100D200000C006F0F846B6EB8C6F03D1166E26F0C5
:100D3000004616660268566E91F800C006F0F84646
:100D4000B6EB8C6F03D1566E26F0004656660268ED
:100D5000966E91F800C006F0F846B6EB8C6F03D1A2
:100D6000966E26F0004696660268D66E91F800C030
:100D700006F0F846B6EB8C6F03D1D66E26F000462F
:100D8000D6660268966806F00306012E3AD136E070
:100D9000D2F860E00EEA0C0E91F800C046EA8C66CC
:100DA0004EEA060E4EF000461666EAE7D2F864E018
:100DB0000EEA0C0E91F800C046EA8C664EEA060E6A
:100DC0004EF000465666DCE7D2F868E00EEA0C0EFC
:100DD00091F800C046EA8C664EEA060E4EF00046D8
:100DE0009666CEE7D2F86CE00EEA0C0E91F800C0E1
:100DF00046EA8C664EEA060E4EF00046C0E71668DC
:100E0000F6077AD1CE68012E06D052F8B03F0E78A0
:100E1000B740BB43136021E052F8B06F91F800C0B7
:100E200007FA0CF73E4316600A680A2A0BD30668D5
:100E3000B769093A02EB420293409F438B689340A3
:100E40001F43B7610AE007687E69521C02EB420249
:100E500093409E438B6893401E437E6103684FF02E
:100E6000A0473B4EBB4201D0B34201D1394A00E01A
:100E7000394A0968102904D0112907D012290AD04B
:100E80003BE0D2F808C04FEA0C2C08E0D2F808C0CA
:100E90004FEACC1C03E0D2F808C04FEA4C2CBCF15E
:100EA000000F2ADBBB420DD0B34201D100970CE00A
:100EB0002A4EDFF8ACC0B34202D1CDF800C004E046
:100EC000634501D1009600E000959E6806F0030698
:100ED000012E02D11E68F6070AD1009E8EB1B668B7
:100EE00006F00306012E0CD1009E3668F60708D0E6
:100EF000016C41F020010164012480F83C5020463F
:100F00008EE6102908D011291AD01229F5D191683E
:100F100041F480019160F0E7BB42EED1916841F469
:100F2000000191600F49104A0968B1FBF2F101EB31
:100F30008101490000E0491E00910029FBD1DCE756
:100F4000BB42DAD1916841F08071E3E700F0FF83A2
:100F50000001005000030050000700500004005042
:100F6000000500504402002040420F0070477047C7
:100F700070470000F0B54FF0000695B0040037460A
:100F80003546009605D0206CC00648D4206C18B1B8
:100F900033E0012015B0F0BD6564E564A56484F814
:100FA0003C50204600F022F920688068C00024D41C
:100FB0002046FFF7A5FB0646206CC0061DD4E6B907
:100FC000206C20F4885040F0020020642068816882
:100FD00021F0405181602068816841F0805181603A
:100FE00079487A490068B0FBF1F000EB80004000DE
:100FF00000E0401E00900028FBD120688168C900F5
:1010000002D5806880000AD5206C20F0020040F0F4
:1010100010002064606C40F0010060640126206CC8
:10102000C00672D4002E70D12068816849076CD444
:10103000216C21F4807141F0020121644FF0A04E37
:10104000634B704501D0984201D1624A00E0624A88
:10105000DFF888C16249704501D100930EE09842E3
:1010600002D1CDF800E009E0884202D1CDF800C0FD
:1010700004E0604501D1009100E00095836803F031
:101080000303012B02D10068C00710D1009840B1C2
:10109000806800F00300012803D100980068C007B1
:1010A00005D19068636820F4403018439060D4E91B
:1010B00002201043626B012A02D04FF4805300E0FB
:1010C0000023627E43EA4233184394F820303843C9
:1010D000012B0AD1D2B1226C22F0020242F020028E
:1010E0002264626C42F001026264A26A012A37D073
:1010F00023688B4201D063452DD14FF430714FF4FA
:10110000E0778A420AD13A4627E053E0A28C354B79
:1011100003EB4242024342F48030E6E74FF480732F
:101120009A4201D10A4618E0BA4201D11A4614E0A7
:10113000B2F58A5F06D0B2F5845F06D0B2F5865F5D
:1011400006D00AE04FF4707207E04FF4A07204E09A
:101150004FF4C07201E022F480520243E06A10436F
:1011600021688A6812F00C0F0BD1CA6844F202039E
:101170009A43CA60217E94F83020890341EA4201F3
:1011800008432268D168184B19400143D160206997
:1011900001282068016B21F00F0102D1E269521E83
:1011A000114301636564206C20F0020040F00100EF
:1011B000206406E0206C20F0020040F01000206463
:1011C00001263046E6E600004402002040420F00BF
:1011D00000010050000300500007005000050050BF
:1011E000000400500000FEFF07C0F0FF70B586B09D
:1011F000054614216846FFF71EF91B4928688842F6
:1012000030D11A49486940F080504861486900F07F
:1012100080500590486940F40020486148690026E4
:1012200000F400200590042000900320CDE9010681
:1012300069460F4800F056FD0F4C0E48C4E9000601
:101240008020C4E90260800020618000606120206D
:10125000C4E90606204600F0D4FC08B1FFF714FCF0
:10126000AC63656206B070BD000100500010024022
:101270000008004808040240B80400202DE9F05F8F
:10128000044600688B469246816849077ED494F8EC
:101290003C1001290ED001214FF0A048DFF8109139
:1012A000444F84F83C10404501D0B84205D1D8F8ED
:1012B000080304E00220BDE8F09FD9F800004FF0D9
:1012C000000610F01F0F01D0012504E02046FFF7B3
:1012D00049FA050002D084F83C6066E0206C40F6D4
:1012E0000161884340F48070206420684146884250
:1012F00001D0B84202D1D1F8082301E0D9F800208A
:1013000012F01F0F04D0884202D02B4A904207D11E
:10131000216C21F480112164C06880010ED413E097
:10132000226C42F480122264B84201D1C86802E003
:1013300021480C30006810F0007F05D0206C20F4AC
:10134000005040F480502064206CC00404D5606CD0
:1013500020F00600606400E0666484F83C60A16BE5
:1013600016488862A16B1648C862A16B15480863CD
:1013700021681C2008602068416841F0100141602C
:101380002068C16841F00101C16000E00CE0216803
:1013900053465A464031A06B00F05AFC20688168E1
:1013A00041F00401816000E00225284683E7000047
:1013B000080700500001005000040050A10600087A
:1013C000FB060008E506000890F82020012A07D057
:1013D000022A05D0416A41F4802141620120704710
:1013E000CA0704D00268936843F0800393608A07B9
:1013F00004D50268936843F400439360490704D519
:101400000068816841F4000181600020704790F815
:101410002020012A07D0022A05D0416A41F4802108
:10142000416201207047006842690A43426100201E
:101430007047F0B590F820500468A468012D05D0DD
:10144000022D03D0416A41F480215DE014F0406F29
:1014500001D1E50055D5C4F30164022C03D9416ADA
:1014600041F4000150E00125A5401D608D684FF456
:10147000C0739DB1CE6835434E6845EAC60506681F
:1014800003EB0417F5514FF4C275076805EB04151B
:101490000E697E51097D012905D009E00E88CD68CD
:1014A00045EA4655EBE701684E5946F480764E51C1
:1014B0001179D579567941EA056195792D0445EA86
:1014C000062529434FF4C676056806EB0416A95194
:1014D0001178D57841EA0561957852782D0445EA6E
:1014E000022211434FF4C475026805EB04155151F3
:1014F000006803EB0411425842F001024250002000
:10150000F0BD416A41F4001141620120F0BD0000CC
:1015100010B590F820300268012B07D0022B05D0BF
:10152000416A41F480214162012010BDD2F80002DD
:1015300040F00100C2F80002087D00F01F03012006
:101540009840D2F81C328343C2F81C32CB69B3B93D
:10155000D2F80C328343C2F80C328C894B6864F3A6
:101560001F434C6902EBC404C4F840320C890B6879
:1015700064F31F434C6902EBC404C4F84432CB69E2
:10158000012B16D1D2F80C320343C2F80C320C886E
:101590004B6864F31F434C6902EBC404C4F8403247
:1015A0000C89CB6864F31F434C6902EBC404C4F894
:1015B00044328B69002BD2F804320FD053EA000377
:1015C000C2F804320B69002BD2F8143208D003435E
:1015D000C2F81432096A012904D008E08343EFE716
:1015E0008343F5E7D2F81C120143C2F81C12D2F86B
:1015F000000220F00100C2F80002002010BD704778
:1016000030B590F82040012C05D0022C03D0416A5F
:1016100041F480215DE00468002955D02469A407C5
:1016200054D04FF4D874056804EB01142D5915F00B
:101630000405956005682D594ED0ED085560056884
:101640002C5904F00204D4604FF4DA74056804EBFA
:1016500001142D5905F00F05156105682D59C5F3C5
:101660000725956105682C59240C54614FF4DC72F0
:10167000046802EB0112A4581C700468A458240AE0
:101680005C700468A458240C9C700468A258120E64
:10169000DA704FF4DE72046802EB0112A4581C7178
:1016A0000468A458240A5C710468A458240C9C7132
:1016B0000468A258120EDA71006881B1016941F024
:1016C00020010161002030BDE468A8E7416A41F4CF
:1016D00000114162012030BD6D0D1560AFE7C1689A
:1016E00041F02001C160EDE70246002092F8201091
:1016F000012901D002290CD111688A68520100D554
:1017000001208A68120100D5401C8968C90000D5F3
:10171000401C70472DE9F05F0546006800244669CB
:10172000D0F804908768D0F80CB0D0F810A0D0F8AA
:101730001880F10748D0F90714D001218160B8075B
:1017400003D5284600F003FA0CE0780702D54FF4E1
:10175000006407E0380702D54FF4805402E02846C1
:1017600000F0F4F9F80516D529684FF48070886008
:10177000B80503D5284600F0ECF90CE0780502D551
:1017800044F4005407E0380502D544F4804402E0F4
:10179000284600F0DDF9F80316D529684FF48030AB
:1017A0008860B80303D5284600F0D5F90CE078032B
:1017B00002D544F4004407E0380302D544F48034F1
:1017C00002E0284600F0C6F9300707D55FEACB6093
:1017D00004D52968102044F40074C86070074FF0E5
:1017E000080707D55FEA0B7004D52868C76028464C
:1017F00000F067F9B00706D52868C068800702D0F6
:10180000284600F05FF9700607D55FEACA6004D584
:101810002968102044F480640861B00607D55FEAA7
:101820000A7004D528680761284600F05FF9F006C1
:1018300006D528680069800702D0284600F057F9CD
:10184000B00308D55FEAC96005D529681020486053
:10185000284600F04DF9F00307D55FEA097004D57A
:1018600028684760284600F077F9300446D55FEADB
:10187000497040D5F00504D55FEAC87001D044F046
:101880000104B00504D55FEA887001D544F0020474
:10189000700504D55FEA487001D544F004043005B2
:1018A00029D518F0700F26D008F07000402815D008
:1018B00006DC102809D020280AD0302816D10AE0EA
:1018C00050280ED0602811D10EE044F008040DE03D
:1018D00044F010040AE044F0200407E044F040041F
:1018E00004E044F0800401E044F4807428688169D5
:1018F00021F070018161296804204860002C05D026
:10190000686A204368622846FFF779FEBDE8F09FC9
:1019100070B5040003D094F8200010B104E0012059
:1019200070BD204600F082F82068016821F00201B5
:10193000016000F0CDFA0546052604E000F0C8FA83
:10194000401B0A2811D8206840688007F6D4206818
:10195000016841F00101016000F0BAFA05460BE0B0
:1019600000F0B6FA401B0A2806D9606A40F400303D
:10197000606284F82060D2E720684068C007EFD03A
:10198000207E0128206801683DD021F0800101609F
:10199000607E01282068016838D021F04001016094
:1019A000A07E01282068016833D021F02001016069
:1019B000E07E0128206801682ED041F0100101600E
:1019C000207F01282068016829D021F008010160EA
:1019D000607F01282068016824D021F004010160A3
:1019E000D4E902010843D4E90412114308436168B1
:1019F000491E08432168C86100206062012084F804
:101A00002000002070BD41F08001C0E741F040019E
:101A1000C5E741F02001CAE721F01001CFE741F00E
:101A20000801D4E741F00401D9E7000010B586B001
:101A3000044614216846FEF7FEFC164920688842D9
:101A400025D11548C16941F00071C161C16901F03A
:101A500000710591416941F48011416140690221A1
:101A600000F4801005900320CDE900010021CDE9AC
:101A70000210072004906946084800F033F900225C
:101A80001146142000F088FA142000F077FA06B00E
:101A900010BD00000064004000100240000C00482F
:101AA00090F820200021012A08D0022A06D0416A9D
:101AB00041F48021416201210846704700224262C0
:101AC000FAE7704710B50446064B074A0021FFF7B6
:101AD00097FD002804D02046BDE81040FFF7E0BF86
:101AE00010BD00002C0000206002002070477047ED
:101AF0007047000070B5044690F82000012804D01B
:101B0000606A40F40020606218E0022084F820003F
:101B10002068016821F00101016000F0D9F9054653
:101B20000EE000BF00F0D4F9401B0A2808D9606A13
:101B300040F400306062052084F82000012070BD70
:101B400020684068C007EDD1606270BD7047704783
:101B500070477047704770477047F0B4C16B0D68AD
:101B600001680C68066C042202FA06F32B420FD0BF
:101B700063070DD50B689B0603D40B6823F00403A1
:101B80000B6090F840108A40C16B4A60C16A1BE04C
:101B9000022303FA06F72F424FF0000C4FF0010228
:101BA00016D0A70714D50C68A40605D40C6824F039
:101BB0000A040C6080F8212090F840108B40C16B23
:101BC0004B6080F820C0816A002918D0F0BC08471B
:101BD0000823B3402B4212D0230710D50B6823F003
:101BE0000E030B6090F84010C36B02FA01F15960CC
:101BF000826380F8212080F820C0016BE4E7F0BC0C
:101C0000704770B5040021D0022084F821002268BA
:101C1000116843F6F0708143D4E901031843D4E915
:101C200003352B43184363691843A3691843E369D9
:101C30001843084310602046FEF7F2FE0020A06320
:101C4000012184F8211084F8200070BD012070BDAE
:101C500070B5044690F82000002501280CD0012022
:101C600084F8200094F821600020012E06D084F82A
:101C700020000225284670BD022070BD022684F88F
:101C80002160A0632068066826F0010606602046F1
:101C9000FEF7E4FEE06A00282068016802D041F007
:101CA0000E0106E041F00A0101602068016821F0A0
:101CB000040101602068016841F001010160D9E779
:101CC00070B5044600F004F90546601C02D00448D3
:101CD0000078044400F0FCF8401BA042FAD370BD29
:101CE000380200202DE9FC4FDFF8A4A100230125D4
:101CF0000AF1040B03244FF00F0C0BF1040EC0E0AB
:101D0000324605FA03F6324073D04F68012F05D0F2
:101D1000022F03D0112F01D0122F17D1D0F8089025
:101D20005F0004FA07F829EA08090097D1F80C8047
:101D300008FA07F848EA0908C0F808804768B74376
:101D40000E79C6F300169E403E434660C6684FEAD1
:101D5000430804FA08F7BE4301978F6807FA08F7AB
:101D60003743C7604E68022E01D0122E10D1DE0814
:101D700000EB86060096366A5F074FEAD7690CFAD1
:101D800009F7BE430F6907FA09F73743009E376228
:101D90000768019EB7430E7906F0030606FA08F6B7
:101DA0003E4306604E68F6006AD53A4EB76947F082
:101DB0000107B761B66923F0030706F00106009634
:101DC000354E3E44B146B6689F074FEA17780CFA85
:101DD00008F7BE43B0F1904F04D0304FB84203D162
:101DE00001271CE000271AE02D4FB84202D102273C
:101DF00015E045E02B4FB84201D103270FE02A4FF1
:101E0000B84201D104270AE0284FB84201D1052782
:101E100005E0274FB84201D1062700E0072707FA5F
:101E200008F73743C9F80870DAF800605746D1F868
:101E3000048096435FEAC83800D516433E60DBF85D
:101E400000605F46D1F8048096435FEA883800D589
:101E500016433E60DEF800607746D1F80480964372
:101E60005FEAC82800D516433E60094F0C373E682C
:101E7000D1F8048096435FEA882800D516433E6077
:101E80005B1C0A681646DA407FF43AAFBDE8FC8F67
:101E9000000401400010024000000140000400481E
:101EA00000080048000C00480010004800140048DA
:101EB00000180048426921EA02030A4043EA02414D
:101EC000816170470AB1816170478162704700008B
:101ED000014880687047000038020020024881688D
:101EE000027811448160704738020020074810B51D
:101EF000016841F010010160032000F06DF800203E
:101F000000F006F800F024F8002010BD0020024088
:101F100070B50D4D04464FF47A712878B1FBF0F09E
:101F20000A490968B1FBF0F000F0B0FD48B9102C87
:101F300007D200222146501E00F02EF800206C60CF
:101F400070BD012070BD0000380200204402002056
:101F5000094808B5816941F001018161816901F099
:101F600001010091C16941F08051C161C06900F077
:101F70008050009008BD000000100240002809DBDE
:101F800000F01F02012191404009800000F1E02093
:101F9000C0F8001170470000F0B40E4B1B680C46EF
:101FA000C3F30223C3F10705042D00D90425191D2D
:101FB000072901D2002300E0DB1E012606FA05F105
:101FC000491E214099409E40761E16403143F0BC88
:101FD00001F0F7BE0CED00E0064900F007020868CA
:101FE0004FF6FF03184040EA0220034A10430860FE
:101FF000704700000CED00E00000FA052DE9F84FF5
:102000000446006800269F4DC0036ED5E869C000F5
:1020100008D4E86940F08050E861E869012600F0E2
:102020008050009098480168C90512D40168804624
:1020300041F480710160FFF74BFF074605E000BFE8
:10204000FFF746FFC01B642835D8D8F80000C0054C
:10205000F6D5286A10F4407053D0A18801F440717D
:1020600081424ED0286A4FF4803191FAA1F2B2FA3F
:1020700082F29700854A4FF00108174420F440701F
:10208000C7F8008491FAA1F1B1FA81F102EB810164
:102090000023C1F800342862C00732D0FFF718FFD0
:1020A000074641F2883A4FF0020907E0FFF710FFB8
:1020B000C11B514502D90320BDE8F88F99FAA9F157
:1020C000B1FA81F141F040014846B8EB511F01D10E
:1020D00029680CE090FAA0F1B1FA81F141F04001D9
:1020E000B0EB511F02D1296A01E015E0696A99FA43
:1020F000A9F0B0FA80F000F01F0008FA00F21142D7
:10210000D4D0286A616820F44070084328621EB168
:10211000E86920F08050E8612078C00705D0286B7E
:10212000A16820F00300084328632078800705D5C4
:10213000286BE16820F4403008432863207840078A
:1021400005D5286B216920F44020084328632078B6
:10215000800605D5286BE16920F01000084328634C
:102160002068800305D56868616D20F4800008430D
:1021700068602078400605D5286B216A20F0200091
:10218000084328632068400305D5286B616A20F066
:102190004000084328632078000705D5286B616953
:1021A00020F44010084328632078C00605D5286B2A
:1021B000A16920F44000084328632088800505D5E4
:1021C0006868216B20F400000843686020780006EE
:1021D00005D5E86AA16A20F4F8700843E86220880F
:1021E000C00505D5E86AE16A20F478500843E86242
:1021F0002088C00405D5286B616B20F480700843EB
:1022000028632088800405D5286B216C20F4007099
:10221000084328632068C00205D5286BA16B20F015
:102220008070084328632068800205D5286BE16B25
:1022300020F00070084328632068400205D5286B11
:10224000616C20F48060084328632068000205D593
:10225000286BA16C20F40060084328632068C0014B
:1022600005D5286BE16C20F40050084328632068F2
:10227000800105D5286B216D20F4004008432863B8
:10228000002019E7001002400070004000004242A8
:10229000704700002DE9F0470F46050069D04A4E0F
:1022A000306800F00700B84209D2306820F007001B
:1022B00038433060306800F00700B84259D12878C0
:1022C000424C800705D56068A96820F0F0000843FB
:1022D00060602878C0073DD06968012001290DD0D1
:1022E000022923D05FF0020393FAA3F2B2FA82F23A
:1022F00042F02002520904D0226803E04FF4003378
:10230000F2E7626A93FAA3F3B3FA83F303F01F03CD
:10231000984002422DD0606820F0030008436060BE
:10232000FFF7D6FD804641F288390CE04FF000738C
:10233000DAE700BFFFF7CCFDA0EB0801494502D961
:102340000320BDE8F0876068696800F00C00B0EB1E
:10235000810FEFD1306800F00700B8420BD9306828
:1023600020F0070038433060306800F00700B842C2
:1023700001D00120E5E72878400705D56068E968C5
:1023800020F4E060084360602878000706D56068A4
:10239000296920F4605040EAC100606000F05AF8FA
:1023A0006168F02292FAA2F201F0F001B2FA82F230
:1023B000D140074A515CC840064908600648006899
:1023C000FFF7A6FD0020BCE70020024000100240FD
:1023D000F84D0008440200203C0200200120C10406
:1023E00091FAA1F1024AB1FA81F142F82100704755
:1023F0000000424208480949006849684FF4E06219
:1024000092FAA2F201F4E061B2FA82F2D140044AF7
:10241000515CC84070470000440200200010024098
:10242000084E000808480949006849684FF460529E
:1024300092FAA2F201F46051B2FA82F2D140044A57
:10244000515CC84070470000440200200010024068
:10245000084E0008144A10B55168144801F00C03E6
:10246000042B1FD0082B1DD14FF4701494FAA4F440
:1024700001F47013B4FA84F4E3400D4CD26AE45CC6
:102480000F2393FAA3F302F00F02B3FA83F3DA40B7
:10249000074BC90310339A5C00231946FDF754FF1C
:1024A000A0FB040110BD00000010024000127A00E1
:1024B000D84D000810B5044CA068000603D5FFF7FE
:1024C000E7FE8020A07210BD001002402DE9F84FF9
:1024D00004007DD02078FA4DC0074FF0010637D0B8
:1024E00068687704C0F38100012819D06868C0F3D8
:1024F0008100022804D16868C0F3C13002280FD0DF
:102500006068B0F5803F24D010B1B0F5A02F2AD07C
:10251000286820F480302860286820F480201BE0A0
:1025200097FAA7F0B0FA80F040F02000400901D0FF
:10253000286800E0686A97FAA7F1B1FA81F101F022
:102540001F0106FA01F108424ED060680028C0D091
:102550004AE0286840F480302860606820B3FFF7C4
:10256000B7FC80460AE0286840F480202860F0E745
:10257000FFF7AEFCA0EB0800642873D897FAA7F029
:10258000B0FA80F040F02000400901D0286800E057
:10259000686A97FAA7F1B1FA81F101F01F0106FA12
:1025A00001F10842E4D01FE0FFF792FC804605E00D
:1025B000FFF78EFCA0EB08006428DED897FAA7F09E
:1025C000B0FA80F040F02000400902D0286801E015
:1025D000B9E0686A97FAA7F1B1FA81F101F01F0139
:1025E00006FA01F10842E3D12078DFF8D8828007AB
:1025F0004FF0000A4FF002075DD568684FF0F80B06
:1026000010F00C0F15D06868C0F38100022804D1C7
:102610006868C0F3C13001280BD0E068A0B396FA17
:10262000A6F0B0FA80F048F82060FFF751FC814630
:1026300020E097FAA7F0B0FA80F040F020004009BF
:1026400001D0286800E0686A97FAA7F1B1FA81F131
:1026500001F01F0106FA01F1084221D0E0680128CB
:1026600071D11DE056E100BFFFF732FCA0EB09007D
:102670000228A2D897FAA7F0B0FA80F040F0200024
:10268000400902D0286801E016E0686A97FAA7F1CD
:10269000B1FA81F101F01F0106FA01F10842E3D01D
:1026A00028689BFAABF22169B2FA82F220F0F800B6
:1026B00091400843286024E096FAA6F1B1FA81F12E
:1026C00048F821A0FFF704FC814605E0FFF700FC75
:1026D000A0EB09000228CCD897FAA7F0B0FA80F056
:1026E00040F02000400901D0286800E0686A97FAAD
:1026F000A7F1B1FA81F101F01F0106FA01F10842D8
:10270000E4D1207800076AD56069A0B396FAA6F0F4
:10271000B0FA80F008EB8000C0F88064FFF7D8FBC7
:10272000814605E0FFF7D4FBA0EB09000228A0D802
:1027300097FAA7F0B0FA80F040F06000B6EB501FB7
:1027400002D128680CE09DE197FAA7F0B0FA80F07A
:1027500040F06000B7EB501F01D1286A00E0686AC2
:1027600097FAA7F1B1FA81F101F01F0106FA01F21F
:102770001042D7D033E0FFE796FAA6F0B0FA80F027
:1027800008EB8000C0F880A4FFF7A2FB814605E0BB
:10279000FFF79EFBA0EB090002289CD897FAA7F050
:1027A000B0FA80F040F06000B6EB501F01D128680D
:1027B0000BE097FAA7F0B0FA80F040F06000B7EBBA
:1027C000501F01D1286A00E0686A97FAA7F1B1FAB0
:1027D00081F101F01F0106FA01F21042D8D12078F0
:1027E000400774D5E8694FF00009C00009D4E869D2
:1027F00040F08050E861E8694FF0010900F0805036
:10280000009031480168C90512D4016841F4807113
:102810000160FFF75DFB834606E000BFFFF758FB52
:10282000A0EB0B00642875D827480068C005F5D5D3
:10283000A06801280AD008B1052811D0286A20F024
:1028400001002862286A20F0040002E0286A40F0B3
:1028500001002862A068C8B3FFF73AFB83460DE089
:10286000286A40F004002862F0E700BFFFF730FB61
:10287000A0EB0B0141F2883081424BD897FAA7F0C8
:10288000B0FA80F040F04000B6EB501F01D128684C
:102890000BE097FAA7F0B0FA80F040F04000B7EBF9
:1028A000501F01D1286A00E0686A97FAA7F1B1FACF
:1028B00081F101F01F0106FA01F21042D6D035E095
:1028C00000100240000042420070004000E034E08E
:1028D000FFF7FEFA834607E0FFF7FAFAA0EB0B01D9
:1028E00041F28830814215D897FAA7F0B0FA80F00B
:1028F00040F04000B6EB501F01D128680CE097FA79
:10290000A7F0B0FA80F040F04000B7EB501F02D1C2
:10291000286A01E089E0686A97FAA7F1B1FA81F1C3
:1029200001F01F0106FA01F21042D5D1B9F1000FF2
:1029300003D0E86920F08050E861A06980B369683D
:10294000C1F38101022973D04FF080714F0002283A
:10295000524609D091FAA1F0B0FA80F048F8202050
:10296000FFF7B6FA044664E091FAA1F0B0FA80F0FD
:102970008A46C14648F82020FFF7AAFA804605E0BB
:10298000FFF7A6FAA0EB080002284ED897FAA7F0A6
:10299000B0FA80F040F02000400902D0286801E041
:1029A00072E0686A97FAA7F1B1FA81F101F01F01AC
:1029B00006FA01F10842E3D1E86A616A20F00F00EB
:1029C0000843E862D4E907100843696821F47611E6
:1029D000084368609AFAAAF0B0FA80F049F82060DB
:1029E000FFF776FA044604E0FFF772FA001B0228AC
:1029F0001BD897FAA7F0B0FA80F040F02000400909
:102A000001D0286800E0686A97FAA7F1B1FA81F16D
:102A100001F01F0106FA01F10842E5D034E000BFE1
:102A2000FFF756FA001B022803D90320BDE8F88FF0
:102A300015E097FAA7F0B0FA80F040F020004009C6
:102A400001D0286800E0686A97FAA7F1B1FA81F12D
:102A500001F01F0106FA01F10842E1D114E001285A
:102A6000E4D06868E96AE36900F4C0329A4209D1A7
:102A7000226A00F47010904204D101F00F00616AE4
:102A8000884201D00120D1E70020CFE710B5401ED9
:102A9000B0F1807F01D3012010BD4FF0E0246061D0
:102AA0000F21601701F08DF90020A061072020613F
:102AB000002010BD7047704770470000F0B590F8D7
:102AC0003C20012A3CD0012580F83C50022280F8AD
:102AD0003D200268536894681A4E1B4FDFF86CC0A3
:102AE000B24203D0BA4201D0624504D123F4700E41
:102AF0004B6843EA0E0323F0700E0B6843EA0E03A3
:102B000053600268B2420FD0B2F1804F0CD0104B2C
:102B10009A4209D00F4B9A4206D0BA4204D00E4BCB
:102B20009A4201D0624504D1896824F08003194398
:102B3000916080F83D50002180F83C100846F0BDBF
:102B40000220F0BD002C0140003401400050014043
:102B500000040040000800400040014010B504009F
:102B600003D094F83D0010B107E0012010BD002013
:102B700084F83C00204600F023F8022084F83D0051
:102B8000211D206800F07CFE012084F8480084F8B4
:102B90003E0084F83F0084F8400084F8410084F847
:102BA000420084F8430084F8440084F8450084F827
:102BB000460084F8470084F83D00002010BD000066
:102BC00008B500680B49884212D10B48C16941F031
:102BD0000201C161C069002200F0020000901146AC
:102BE0001D20FFF7D9F9BDE808401D20FFF7C6B941
:102BF00008BD0000000400400010024090F83D10A5
:102C0000012901D001207047022180F83D100168A0
:102C1000CA6842F00102CA6000681149884211D0B6
:102C2000B0F1804F0ED00F4988420BD00E49884238
:102C300008D00E49884205D00D49884202D00D497E
:102C4000884207D181680C4A1140062906D0B1F5A7
:102C5000803F03D0016841F001010160002070470E
:102C6000002C0140000400400008004000340140F6
:102C700000400140005001400700010070B50446CB
:102C800090F83C00012817D0012584F83C50022020
:102C900084F83D00226890682E4B184020F47F4055
:102CA00090600868502830D00DDC20284DD005DC1D
:102CB00098B310283BD148E0022070BD302844D0A2
:102CC000402834D139E0602828D0702806D0B0F5EB
:102CD000805F2CD0B0F5005F29D10AE0CB68D1E944
:102CE0000121206800F02EFE2068816841F0770104
:102CF00009E0CB68D1E90121206800F023FE2068BB
:102D0000816841F48041816011E0CA6849682068A7
:102D100000F02AFE5021206807E016E0CA684968E2
:102D2000206800F032FE6021206800F015FE84F873
:102D30003D50002084F83C0070BDCA684968206896
:102D400000F012FE40212068EFE72268014610469D
:102D5000EBE7000088FFFEFF704770B5044600688F
:102D600001694FF00005C943890715D4C168C943FB
:102D7000890711D4E91E016101202077206880694C
:102D80008007204602D0FFF7E7FF04E000F0A7F835
:102D9000204600F0A5F8257720680169C943490756
:102DA00017D4C168C943490713D46FF00401016106
:102DB000022020772068806910F4407F204602D0EE
:102DC000FFF7CAFF04E000F08AF8204600F088F818
:102DD000257720680169C943090716D4C168C9432A
:102DE000090712D46FF008010161042020772068E0
:102DF000C0698007204602D0FFF7AEFF04E000F074
:102E00006EF8204600F06CF8257720680169C94308
:102E1000C90617D4C168C943C90613D46FF010019D
:102E20000161082020772068C06910F4407F2046A7
:102E300002D0FFF791FF04E000F051F8204600F0C7
:102E40004FF8257720680169C943C90708D1C168CF
:102E5000C943C90704D1891E0161204600F042F828
:102E600020680169C943090609D4C168C943090634
:102E700005D46FF0800101612046FFF71CFE206839
:102E80000169C943C90509D4C168C943090605D404
:102E90006FF4807101612046FFF70CFE2068016924
:102EA000C943490609D4C168C943490605D46FF02E
:102EB00040010161204600F023F820680169C94300
:102EC00089060BD4C168C943890607D46FF0200175
:102ED00001612046BDE87040FFF7EEBD70BD704750
:102EE0007047000000680449884203D103484168E4
:102EF000491C4160704700000004004000000020B1
:102F0000704710B5040002D0A06F10B107E0012097
:102F100010BD002084F87400204600F025F824201D
:102F2000A0672068016821F001010160204600F0DF
:102F3000D1FD0128ECD0606A10B1204600F037FDC9
:102F40002068416821F4904141602068816821F047
:102F50002A0181602068016841F00101016020467A
:102F6000BDE8104000F087BD70B586B0044614215E
:102F70006846FDF760FA214E2568002120480222AC
:102F800003230724B54219D1856945F4804585613D
:102F9000856905F480450595456945F40035456129
:102FA000406902AD00F40030059085E81A0058022F
:102FB000CDE9000269464FF090401AE0114EB5424B
:102FC00019D1C56945F40035C561C56905F40035F9
:102FD0000595456945F480154561406902AD00F4E9
:102FE0008010059085E81A006020CDE9000269464E
:102FF0000548FEF777FE06B070BD000000380140BE
:103000000010024000440040000C00482DE9F84F39
:103010000446C06F9A4616460D46202870D10DB35F
:1030200006B394F8740001286AD0012084F8740073
:103030004FF00008C4F880802221E167C4F8608066
:103040005834FEF745FF24F8026B814624F8526994
:103050004FF4805354F80809FF21984208D122699F
:103060001AB11CE00120BDE8F88F40F2FF1116E014
:103070007F2290B1B0F1805F14D0A4F85C8000BFD3
:10308000B4F85C70984201D1206990B12E460025B9
:1030900084F8748007F0FF0825E0266936B9A4F8A3
:1030A0005C10EDE7216909B13F21F8E7A4F85C2045
:1030B000E6E70026ECE74B46002220212046CDF82B
:1030C00000A000F0EBFD08B10320CCE72068808C65
:1030D0008EB100EA080006F8010B00BFB4F85A00F0
:1030E000401EA4F85A00B4F85A000028E3D120206A
:1030F000E0670020B7E7384025F8020BEEE7FFE76E
:103100000220B0E72DE9F8430446806F1F461646BB
:103110000D4620284FD1CDB1C6B194F874000128D6
:1031200049D0012084F874004FF00008C4F8808072
:103130002120A067FEF7CCFEA4F850608146A4F8D9
:103140005260A068B0F5805F03D004E00120BDE8C4
:10315000F883206928B12E465FF0000584F874805A
:1031600010E00026FAE78021204600F097FDB8B96C
:10317000C6B116F8010B21680885B4F85200401E4C
:10318000A4F85200B4F852004B464FF000020097EA
:103190000028E8D14FF04001204600F07FFD30B11B
:1031A0000320D4E735F8020BC0F30800E3E7202042
:1031B000A0670020CBE70220C9E7FEE770B50C4608
:1031C00005461146054801F0B5F8002805D021460E
:1031D0002846BDE87040FEF76DBE70BD14000020AB
:1031E00030B587B018216846FDF725F9164815490E
:1031F000002401604FF44031C0E9011404614476B9
:1032000080F820400125C0E90A54C561C46080F8F7
:1032100030400421416104764463FDF7ABFE60B9A0
:10322000082000900394CDE90154049469460648AF
:103230000594FDF7D1FC002801D0FDF725FC07B06F
:1032400030BD000000010050C402002010B5194834
:103250001749002401600621C0E901144FF4003130
:10326000C0E903414461047644768476C4760477E9
:103270004477FEF74DFB08B1FDF706FC0E4802212E
:1032800041610121C0E906140460446004610162E7
:103290000E21416201460748FEF73AF9002805D0A1
:1032A000BDE810403821054800F006B910BD000007
:1032B0000064004014030020900400203402002029
:1032C0002DE9F04F87B014216846FDF7B4F83F4868
:1032D000416941F480014161416901F48001059136
:1032E000416941F400214161416901F400210591E6
:1032F000416941F400314161416901F400310591B6
:10330000416941F480214161416901F480210591C5
:10331000416941F48011416140694FF0904800F4E7
:1033200080100590002230214046FEF7CBFDDFF8EB
:10333000A0904FF48066002231464846FEF7C2FD59
:10334000DFF890A04FF41447002239465046FEF7AC
:10335000B9FDDFF884B0002231465846FEF7B2FDD1
:10336000012240214846FEF7ADFD042000900320D5
:103370000024CDE9010469465846FEF7B3FC30202D
:1033800000900125CDE90154694640460394FEF7BB
:10339000A9FC4FF488600090CDE901546946484685
:1033A0000394FEF79FFC0097CDE90154694650460F
:1033B0000394FEF797FC0096CDE901546946584600
:1033C0000394FEF78FFC07B0BDE8F08F00100240B9
:1033D00000040048000C00480008004810B588B000
:1033E00000241548009401940294039404940594D5
:1033F0001049069401603C21C0E901146421C0E930
:1034000003148461FFF7AAFB78B94FF48050009051
:1034100069460948FFF732FC38B9049404A9064804
:103420000694FFF74BFB002801D0FDF72DFB08B0F9
:1034300010BD0000000400403C0300200C4810B503
:103440000A4901604FF416414160002181600C225D
:10345000C160C0E904128161C16101624162FFF78C
:1034600050FD002801D0FDF70FFB10BD00380140D2
:10347000880300200C4810B50A4901600B494160DF
:10348000002181600C22C160C0E904128161C16128
:1034900001624162FFF735FD002801D0FDF7F4FA23
:1034A00010BD0000004400400C04002090D0030038
:1034B000FEE7FEF7FFFFFEE773B50122114E04465B
:1034C000950288B029463046FEF7FCFC56200022C3
:1034D000CDE90202019001200590282004928DF888
:1034E00018200090234609AA01A90748FDF76CF9A6
:1034F0006420FEF7E5FB002229463046FEF7E2FC99
:103500000AB070BD000C0048140300207047000092
:1035100008B501460D4800F00DFF002815D00C48F5
:1035200030210122016041600021C160026181609F
:1035300001750649FF200C310A46087028200090CA
:10354000044B03490448FDF73FF908BD180000206B
:1035500048020020340200201403002070470000BD
:103560002DE9F04186B09A48FFF748FB9948FEF7ED
:10357000C1FA18B138219848FFF79EFF02219548FB
:10358000FDF745FF18B139219348FFF795FF012258
:10359000D1039248FEF796FC4FF09048012210218B
:1035A0004046FEF78FFC402000900C23F1220321BF
:1035B000642000F0CBFB18B13A218748FFF77CFF6D
:1035C0006420FEF77DFB864C002240212046FEF75A
:1035D00079FC6420FEF774FB012240212046FEF7AF
:1035E00071FCC820FEF76CFB00253D23F12203216E
:1035F0001420009500F0AAFB18B13A217648FFF795
:103600005BFF6420FEF75CFBBC2000903E23F122B0
:103610000321142000F09AFB18B13A216E48FFF7FD
:103620004BFF6420FEF74CFBC020FF24CDE9004097
:103630005223F2220421142000F088FB18B13A2111
:103640006548FFF739FF6420FEF73AFB3820009009
:103650005123F1220321142000F078FB18B13A2104
:103660005D48FFF729FF6420FEF72AFB07210D20A4
:10367000CDE90001002391220421142000F066FB13
:1036800018B13C215448FFF717FF6420FEF718FBE0
:10369000CDE9015403200090002394220721142037
:1036A000CDE9034500F052FB18B13A214A48FFF733
:1036B00003FF6420FEF704FB3C228A218E208DE864
:1036C0000700002392220521142000F03FFB18B1CF
:1036D0003D214148FFF7F0FE6420FEF7F1FA282271
:1036E000DC2190208DE80700002392220521142080
:1036F00000F02CFB18B13E213748FFF7DDFE6420B7
:10370000FEF7DEFA00241C26DB27A0009430CDE96A
:1037100000070023922205210296642000F016FB88
:1037200018B13F212C48FFF7C7FE641C082CECDBC6
:103730006420FEF7C5FA7B24002391220421142083
:10374000CDE9004500F002FB18B13A212248FFF70D
:10375000B3FE6420FEF7B4FA7A20CDE90005002319
:1037600091220421142000F0F1FA18B13A211A48EC
:10377000FFF7A2FE6420FEF7A3FA3F257820CDE9EB
:103780000005002391220421142000F0DFFA18B173
:103790003A211148FFF790FE6420FEF791FA0023CA
:1037A000912204211420CDE9004500F0CFFA18B190
:1037B0003A210948FFF780FE6420FEF781FA06B03F
:1037C0004046BDE8F04101221021FEF77BBB00001E
:1037D0003C0300201403002034020020000C0048A9
:1037E00000040048FEF77ABB10B5A6B0282116A841
:1037F000FCF721FE142120A8FCF71DFE5821684685
:10380000FCF719FE01200104CDE916010224CDE9DF
:103810001C4119904FF45011CDE91E1016A8FEF767
:1038200055FEB0B90F20CDE9200400244FF480608C
:10383000CDE92240022120A82494FEF72BFD40B9B7
:1038400007480F940090029403946846FEF7D6FB55
:1038500008B1FDF719F9FEF7C1FD26B010BD000053
:10386000030020000248016841F4700101607047C4
:1038700088ED00E00148FFF770BA00003C0300202B
:103880002DE9F0470268274B274E284F284C294D39
:103890004FF0804A984209D0504507D0B04205D039
:1038A000B84203D0A04201D0A84204D122F0700C4B
:1038B0004A6842EA0C02DFF880C0DFF88080DFF857
:1038C000809098420FD050450DD0B0420BD0B842F6
:1038D00009D0A04207D0604505D0404503D04845F7
:1038E00001D0A84203D122F44076CA6832434E691F
:1038F00022F08002324302608A68C2620A688262F1
:10390000984209D0A04207D0604505D0404503D079
:10391000484501D0A84201D10969016301214161F3
:10392000BDE8F087002C0140000400400008004082
:10393000003401400050014000400140004401407B
:103940000048014010B5846842EA032224F47F4411
:103950000A432243826010BD826822F070020A434B
:1039600042F007018160704710B5036A046A24F0D1
:1039700001040462846924F0F00444EA021423F090
:103980000A020A438461026210BD10B5036A23F083
:10399000100303628369046A23F4704343EA02322A
:1039A00024F0A00343EA01118261016210BD90F886
:1039B0002410C90706D001684A68836A22F40032DD
:1039C0001A434A6090F82410890706D501684A68AE
:1039D000C36A22F480321A434A6090F824104907DF
:1039E00006D501684A68036B22F480221A434A60B4
:1039F00090F82410090706D501684A68436B22F441
:103A000000421A434A6090F82410C90606D501689E
:103A10008A68836B22F480521A438A6090F82410DB
:103A2000890606D501688A68C36B22F400521A43DE
:103A30008A6090F82410490611D501684A68036C21
:103A400022F480121A434A60016CB1F5801F06D13E
:103A500001684A68436C22F4C0021A434A6090F835
:103A60002410090606D501684A68806C22F40022F9
:103A700002434A607047F8B500260446C0F88060EB
:103A8000FEF726FA0546206800686FF07E470007BB
:103A900008D52B4600224FF400112046009700F075
:103AA000FDF860B92068006840070AD52B4600225F
:103AB0004FF480012046009700F0F0F808B1032091
:103AC000F8BD2020A067E067266684F874600020B7
:103AD000F8BD000070B5044680682169E2690843BA
:103AE000616900251143226808431168634B19403E
:103AF0000143116020684168E26821F4405111439C
:103B00004160216AA06901432068826822F4306222
:103B10000A4382605A4A20685A4990420CD1086B85
:103B200010F0030006D001285FD002285FD00328E0
:103B300045D158E0012143E0534A90420DD1086B32
:103B400010F440304DD0B0F5803F4ED0B0F5003F7E
:103B50004DD0B0F5403F32D145E04C4A90420DD1B6
:103B6000086B10F440203CD0B0F5802F3DD0B0F56C
:103B7000002F3CD0B0F5402F21D134E0444A904290
:103B80000DD1086B10F440102BD0B0F5801F2CD055
:103B9000B0F5001F2BD0B0F5401F10D123E03D4AF7
:103BA00090420CD1086B10F440001AD0B0F5800F91
:103BB0001BD0B0F5000F1AD0B0F5400F13D0102174
:103BC000E3694FF40040344A4FF6EF7683422ED13A
:103BD00009294AD2DFE801F00D1013491549494976
:103BE00018000021ECE70221EAE70421E8E70821B8
:103BF000E6E7FEF7FFFB06E0FEF714FC03E01046E5
:103C000002E0FEF727FC88B34100606801EB500139
:103C1000B1FBF0F081B2A1F11000B04225D84FF60F
:103C2000F07201EA0200C1F3420108431FE00929D2
:103C30001BD2DFE801F005080B1A0D1A1A1A100042
:103C4000FEF7D8FB06E0FEF7EDFB03E0104602E0CE
:103C5000FEF700FC50B1616800EB5100B0FBF1F0E1
:103C600080B2A0F11001B14201D9012501E0216823
:103C7000C86000206066A066284670BDF369FFEF4B
:103C8000003801400010024000440040004800405D
:103C9000004C00400050004000127A002DE9F0472F
:103CA0009A4617460E4604464FF000094FF020088A
:103CB000089D39E0681C37D0FEF70AF9A0EB0A002E
:103CC000A84222D80DB32068016849072CD5C069E5
:103CD000C043000528D421684FF4006008622068C2
:103CE000016821F4D07101602068816821F0010130
:103CF0008160C4F87880C4F87C80C4F8808000BFFC
:103D000084F874900320BDE8F0872068016821F4EE
:103D1000D07101602068816821F001018160C4F8E0
:103D20007880C4F87C80EBE72068C06936EA000040
:103D300004D00020B842BDD00020E4E70120F9E71C
:103D40000148FDF7E7BC0000140300200FB470B574
:103D500006460598811C0A2903DD012070BC5DF828
:103D600014FB06AD801CFCF799FA044600231846A4
:103D700004E000BF15F8041B2154401C059988423B
:103D8000F8DB0A462146184600F0C2FA059A010AF5
:103D90002244334651700599605405982146801C91
:103DA00082B20548FFF7AEF904490546087020467F
:103DB000FCF7A3FA2846D1E70C04002000000020FD
:103DC000FEE70907090E002804DB00F1E02080F877
:103DD0000014704700F00F0000F1E02080F8141D7F
:103DE000704700000000000070B5D94B00242DED95
:103DF000020B2DED108BDDE91010984205DA20F052
:103E000000429A4201D809D141B19DED100BBDECA1
:103E1000108B02B0BDE8704000F05EBAB0F5801FB4
:103E200026DA11430BD0002813DA0120FCF785FBBA
:103E3000BDEC108B02B0BDE8704000F059BA022012
:103E4000FCF77BFB00F030FA51EC100B00F0C2FAEB
:103E50009EE06FF035049FEDC00B53EC102B9DEDF1
:103E6000100B51EC100B00F04DFDCDE91001084690
:103E700004EB2051C0F31304B948A1F2FF312044F0
:103E800000F4801080F07F6282F04052224301EB08
:103E900020559FEDB50B119253EC102B9DED100B9F
:103EA00051EC100B00F038FE41EC180BA01CC0F3D5
:103EB00013009FEDAFDB9FEDB0EBB14E7E440328C6
:103EC0006CD296ED000B51EC180B53EC102B00F05C
:103ED00099FC1DD1002D01BF96ED000BBDEC108BA0
:103EE00002B070BD284600F0F6FC41EC180B53EC14
:103EF0001D2B00F007FD41EC190B53EC1E2B51EC70
:103F0000180B00F0FFFC53EC192B00F06FFA3FE0A8
:103F10009FED9D0B51EC180B53EC102B00F0F2FCB5
:103F20009FED9B1B53EC112B00F0EAFD41EC190BAC
:103F300053EC182B51EC180B00F0E4FC53EC192B4C
:103F400000F0E0FC41EC190B002D04BF53EC192BE1
:103F500051EC180B1AD0284600F0BDFC41EC1A0BAE
:103F600053EC1D2B00F0CEFC53EC192B00F0C8FDD8
:103F700053EC182B00F0D0FD41EC180B53EC1E2B2A
:103F800051EC1A0B00F0BEFC53EC182B00F0C4FDF2
:103F9000BDEC108B02B041EC100B70BD9FED7E0BA1
:103FA00051EC180B53EC102B00F020FA41EC100BE5
:103FB00051EC180B53EC102B00F0CCFA41EC190B20
:103FC000284600F088FC41EC1B0B53EC192B51ECFC
:103FD000190B00F097FC41EC1A0B714853EC1A2BAB
:103FE000261851EC1A0B00F08DFC41EC1F0B6D48AC
:103FF000C4F1510404F5D724B0EE4F0AF0EE6F0A75
:104000000321784400F0D2F853EC1F2B51EC100B35
:1040100000F078FC41EC1C0B6348B0EE4F0AF0EE68
:104020006F0A0421784400F0C1F853EC1A2B51ECCC
:10403000100B00F067FC344353EC1C2B00F0D6F956
:1040400041EC1C0B002C4CDD9FED510B51EC180B7F
:1040500053EC102B00F056FC53EC182B00F052FCE4
:1040600041EC1A0B55B353EC1D2B51EC1B0B00F01C
:1040700049FC41EC1D0B53EC1C2B51EC1A0B00F0CE
:10408000B5F953EC192B00F03DFC53EC1D2B00F05F
:10409000ADF953EC1A2B00F033FD53EC182B00F064
:1040A0003BFD41EC180B53EC1E2B51EC1B0B00F0AD
:1040B00029FC53EC182B00F02FFD69E753EC1C2B67
:1040C00051EC1A0B00F092F953EC192B00F01AFC8A
:1040D00053EC1A2B00F014FD53EC182B00F010FDDC
:1040E00056E735B353EC1D2B51EC1B0B00F00AFCCB
:1040F00041EC1A0B53EC1C2B51EC180B00F00CFD8F
:1041000053EC192B00F0FEFB53EC1A2B00F004FDCE
:1041100053EC182B00F000FD41EC180B53EC1E2B58
:1041200051EC1B0B00F0EEFB53EC182B00F0F4FCF1
:104130002EE753EC1C2B51EC180B00F0EDFC53EC6C
:10414000192B00F0DFFB53EC182B00F0D9FC1FE714
:104150000000F07F0000000000000000000050435D
:10416000645F090000000000000000000000F03F54
:10417000763C7935EF39EA3D0000E0FE422EE63F1D
:10418000880F000000000000555555555555D53F86
:10419000000000000000E03F0000000000000040C0
:1041A00086EBF9FF0A0E0000000E000070B5044611
:1041B0002DED028B4D1E00EBC500B0EE408AF0EEF7
:1041C000608A90ED000B35F0060017D053EC182BE9
:1041D00051EC100B00F096FB41EC100B6D1E04EB44
:1041E000C50090ED001B51EC100B53EC112B00F0AF
:1041F000FDF841EC100B35F00600E7D1022D36D06A
:10420000042D1CD0062D1CBFBDEC028B70BD53ECE1
:10421000182B51EC100B00F075FB94ED0A1B53ECBE
:10422000112B00F0E3F853EC182B00F06BFB94ED2E
:10423000081B53EC112B00F0D9F841EC100B53EC98
:10424000182B51EC100B00F05DFB94ED061B53ECAA
:10425000112B00F0CBF853EC182B00F053FB94ED2E
:10426000040B53EC102B00F0C1F841EC100B53EC95
:10427000182B51EC100B00F045FB94ED021B53EC96
:10428000112B00F0B3F853EC182B00F03BFB94ED2E
:10429000001B53EC112B00F0A9F8BDEC028B41EC94
:1042A000100B70BD000000009FED070B10B553EC24
:1042B000102B9FED070B51EC100B00F04BF941EC6C
:1042C000100B10BD00000000000000000000000006
:1042D000000000000000F03F10B553EC102B51EC33
:1042E000100B00F083F841EC100B10BD0000000033
:1042F0009FED050B10B553EC102B51EC100B00F09B
:1043000029F941EC100B10BD000000000000000076
:1043100010B5074B08E000BF11F8014B4440E4B270
:1043200033F8144084EA1020521EF5D210BD00006C
:104330003400002010B5094A03685268934202D243
:10434000D41A8C4205D2934206D9D443E31A8B4245
:1043500002D30260012010BD002010BD000000202B
:1043600008B5FDF7C3FDFFF73FFAFEF7A9FF1748B1
:10437000416941F0020141614069002200F0020000
:10438000009011463820FDF707FE3820FDF7F6FDB6
:10439000FEF75CFFFFF752F8FFF76CF8FEF720FF1F
:1043A000FFF71CF8FFF7DCF8094E4FF4FA744FF4EE
:1043B0008055C820FCF7F6FA224629463046FEF71B
:1043C000FDFE2046FFF7A4F8F3E7000000100240CE
:1043D000000C004881F00041704780F000407047B9
:1043E00021F00041704720F00040704710B591EA7D
:1043F000030F48BF83F0004300F19683841A71EBEA
:10440000030C05D2121943EB0C03001B61EB0C01EA
:10441000DFF824E14FEA1154A4EB135C1EEA430FCA
:1044200018BF9EEA445F73D023EA0E03DCF1200E2E
:1044300021EA045143F4801332D322FA0CFE10EB2C
:104440000E0023FA0CFE41EB0E01CCF1200E03FA14
:104450000EFE10EB0E0051F10001B1F5801FCCF102
:10446000200E32D201EB045112FA0EF2BDE81040D8
:1044700058BF7047401C38BF5FEA420218BF704700
:10448000002814BF20F0010041F100014FEA410370
:1044900013F5001F38BF7047A1F1C04100F02ABBDF
:1044A000012A43EB0302ACF1200CDCF11F0E32BFFA
:1044B0004FF0000E23FA0CF310EB030041EB045114
:1044C000B4EB115FD0D0A1EB045101F58011490884
:1044D0005FEA300001EB04510ED350F1000038BF09
:1044E00012FA0EFE08D1BDE81040C9E7401C38BFE3
:1044F0005FEA4202CAD1C3E7BDE810404FEA410378
:1045000013F5001F38BF7047A1F1C04100F0F2BAA7
:104510009EEA445F08D011EA5E0FBDE8104004BF78
:1045200001F0004100207047BDE8104070B500F078
:1045300093FA00BF64FBBE3E0000E0FF491058BF85
:10454000C1F140415B1058BFC3F140438B42EFF3D0
:10455000008070472DE9C04130B4DFF8A0C23CEACA
:10456000111418BF3CEA131400F0EC8081EA030533
:104570001CEA111444EAD57418BF1CEA131500F0A4
:10458000C780A4EB05044FF0004545EAC12145EA88
:10459000C32341EA505143EA525304F17F749942D4
:1045A00004F500344FEAC0204FEAC22208BF90420F
:1045B00000F09C804FEA13650FF24016765D4FEADB
:1045C000134506FB05F7C7F1807706FB07F74FEAAF
:1045D000D737A7FB03687642C8F58038A7FB06CE1D
:1045E00038BFA8F1010807FB08E64FF0000EA6FB54
:1045F000028CE6FB03CEDCF1000CCEF1004E38BF9E
:10460000AEF1010EA6FB0C584FF000074FF000056D
:10461000E6FB0E87A1FB08C6A0FB07CE16EB0E0635
:1046200045F10005E1FB076515F1E04E7EBFA4F5FD
:1046300080345FEA46066D4116F1800745F10005BA
:104640004FEA17274FEA066647EA0567A6F1DE46F6
:10465000B6F1805F4FEA15251FD9384624F0010CCA
:1046600005EBC471BCF1FE6F01EB0C1102D8F0BC7C
:10467000BDE8008124425CBF01F5801E9EEAC47F34
:1046800002D4F0BCBDE80081244238D4F0BCA1F1D2
:10469000C041BDE8004100F02DBA4FEAD22242EA03
:1046A00043524FEAD323A7FB02864FEAD02040EAC9
:1046B000415007FB03661EEA0E0F4FEAD12105FBAE
:1046C000026658BFA6EB0056B6EB00564FEA520EF4
:1046D0004EEAC37E18EB0E0E56EB530EBDD518EB0B
:1046E00002085E417F1C55F10005B6E74FF48015C6
:1046F0004FF000074FF000064FF00008ADE7F0BCA8
:104700004FF0000001F1C04101F00041BDE800811F
:1047100011EA0C1F0CEA131500D00CE013EA0C1F71
:1047200000F025804FF00000F0BC81EA030101F0A9
:104730000041BDE80081F0BCBDE8004181EA030111
:1047400000F0D8B9F0BCBDE8004170B500F084F9C4
:10475000097EFC3E00F007B881EA03014FF000003B
:1047600001F00041704781EA030100F0C3B9F0BCD9
:10477000BDE800414FF0000021497047FFFDFBF903
:10478000F7F5F4F2F0EEEDEBE9E8E6E4E3E1E0DE84
:10479000DDDBDAD8D7D5D4D3D1D0CFCDCCCBCAC8F6
:1047A000C7C6C5C4C2C1C0BFBEBDBCBBBAB9B8B71D
:1047B000B6B5B4B3B2B1B0AFAEADACABAAA9A8A810
:1047C000A7A6A5A4A3A3A2A1A09F9F9E9D9C9C9BDE
:1047D0009A99999897979695959493939291919089
:1047E0008F8F8E8E8D8C8C8B8B8A8989888887871A
:1047F0008685858484838382828181800000FF078F
:104800000000F87F51EA030C17D41CF5801F58BF35
:10481000BCF5801F00F10680994218BF704708BFA1
:104820009042704707D711F5801F58BF13F5801FBE
:1048300019D499427047894270471CF5801F08D5EA
:10484000BCF5801FF7D58B4218BF704708BF824266
:1048500070474FF4001C1CEB410F38BF1CEB430F9B
:1048600001D28B42704770B500F0F6F892244900EF
:104870004FF000514FF08053FFF760BE4FEA1153E5
:10488000A3F58063D3F11E03A8BFD3F1200C08DB8E
:104890004FF0004242EAC12252EA505232FA03F08B
:1048A000704709420BD4102BC4BF0020704703F59A
:1048B000787CBCF1FF3F05D04FF0FF3070474FF0E0
:1048C0000000704770B500F0C7F800BF499224801F
:1048D00000207047F0E710F0004248BF4042B0FAB5
:1048E00080F310FA03F10AD0C3F11D0303F58063CE
:1048F0004FEA415002EB035202EBD12170474FF0D7
:1049000000007047DFF848C170B51CEA111E1EBFD9
:104910001CEA13159EEA0C0F95EA0C0F00F06F804D
:1049200081EA030423EA4C134EEAD47E21EA4C11B7
:1049300041F4801143F48013AE44A1FB024CA0FB70
:104940000365AEF17F7E361955EB0C05A1FB034CD8
:104950004CF10003A0FB021C16EB0C06654153F161
:104960000003094218BF46F0010613F4007F0BD183
:104970004FEA03314FEA0530340341EA155140EA6A
:1049800016506FF003020AE04FEAC3214FEAC52038
:10499000F40241EA555140EA56506FF0020202EB30
:1049A0002E4201EB025585EACE710AD05FEA440C33
:1049B00018BF24F0004450F1000041F1000120EA4A
:1049C000D47040F2FE7C624500D270BDA84214BF94
:1049D0004FF080444FF04044002E08BF0024BEF149
:1049E000806FA8BFA1F1C041BDE8704080F2828015
:1049F0004FF0000001F1C04101F0004170479EEA14
:104A00000C0F0CEA131518BF95EA0C0F06D04FF0E7
:104A1000000081EA030E0EF0004170BD00F01CF8AA
:104A20008900013E00F007B800F009B84FEA430CD6
:104A30005FEA5C5C08D081EA030100F05BB84FEAF2
:104A4000410C5FEA5C5CF6D14FF000000149704711
:104A50000000FF070000F87F0EF1020E2EF0030E9B
:104A60005EF8046B364205D4012A43EB030515F5C5
:104A7000001F12D8012841EB010C1CF5001F0CD8B7
:104A80000ED14FEAD17C15F5001F0CEB4C0C0CF14C
:104A9000020C08BF4CEBD37C04E04FF0080C01E0A3
:104AA0004FEAD37C0CEB4C0526FA05F606F0070618
:104AB000B6F1040C06D20EEB860CBDE870404CF04B
:104AC000010C6047DFE80CF0090B02024FF00041D7
:104AD0004FF00000A1F5002170BD194610460128D5
:104AE00051EB010418BFD4F5001484BF002001F07D
:104AF000004170BD0808A0F500114FEA3101704770
:104B000091EA030F10B581F000413FF577AC83F0D7
:104B1000004300F009B8000010B591EA030F48BF48
:104B200083F000433FF56AAC841A71EB030C07D2A3
:104B300012198CF0004C43EB0C03001B61EB0C01D1
:104B4000DFF8A4E14FEA1154A4EB135C1EEA430F13
:104B500018BF9EEA445F00F0B08023EA6E03524221
:104B600021EA0451C3EB6E0338BF5B1EDCF1200E5B
:104B700025D322FA0CFE10EB0E0043FA0CFE41EB9B
:104B80000E01CCF1200E03FA0EFE10EB0E0051F1D7
:104B90000001CCF1200E29D412FA0EF201EB0451DF
:104BA000BDE8104058BF7047401C1CBFB2F1004F19
:104BB000704700280CBF491C20F00100704712EB21
:104BC000020E43EB030218BF4FF0010E4EEA420201
:104BD000ACF1200CDCF11E0E54D943FA0CFE10EBA4
:104BE0000E0051F1FF31CCF11E0ED5D50EF1010EA4
:104BF00012FA0EFE404141EB010101EB445C5FEA19
:104C00005C5C10D910EBDE7001EB045138BFBEF1D3
:104C1000004FBDE8104018BF704700280CBF491C6A
:104C200020F00100704730D24FEAD42C11F500116A
:104C300024F400641BD0B1FA81F20B3AA41AA41E2A
:104C4000D2F12003914030FA03F31943904001EB75
:104C5000CC71002C01EB0451BDE81040A8BF704797
:104C600001F1C0414FF0000001F000417047B0FA7F
:104C700080F310FA03F100D110BDE41A173C480587
:104C8000C90AE4E701EB045110BD491001EB0451DE
:104C9000BDE810404FEA300002E04FF000017047DD
:104CA0004A0008BF0042F8D0B2F5001F28BF704785
:104CB00001F000414FF0000070479EEA445F07D0CA
:104CC00011EA5E0FBDE8104004BF002100207047CC
:104CD000BDE8104070B5FFF7BFFE00BF40DFF63EF5
:104CE00083F00041104670470000E0FF43004FEAA8
:104CF000D30C4FEA3C0C43401FBF40070CF16051FE
:104D000013F0FE4F70471CF0006F03D100200CF031
:104D1000004170470CF0004343EA507010B540EA80
:104D2000CC0000F00EF800BF000000924FEA000136
:104D3000FFF7E0BE4FF000414FF00000A1F5002169
:104D400070470EF1020E2EF0030E5EF8044B244263
:104D500004D44FEA4102B2F17F4F11D84FEA400329
:104D6000B3F17F4F0CD80ED14FEAD07CB2F17F4F18
:104D70000CEB4C0C0CF1020C08BF4CEBD17C04E0AA
:104D80004FF0080C01E04FEAD17C0CEB4C0324FA05
:104D900003F404F00704B4F1040C06D20EEB840C07
:104DA000BDE810404CF0010C6047DFE80CF007084C
:104DB00002024FF00040A0F5800010BD08464200FE
:104DC00018BFD2F1807288BF00F0004010BD4FF0D4
:104DD0004070E1EE100A7047020304050607080957
:104DE0000A0B0C0D0E0F1010010203040506070834
:104DF000090A0B0C0D0E0F1000000000000000004F
:104E00000102030406070809000000000102030470
:104E100004FA97999999D93FAF788E1DC571CC3F07
:104E20009FC678D0099AC33F935555555555E53FD0
:104E3000599322942449D23FDE03CB966446C73F60
:104E400044523EDF12F1C23F0000000000000000AB
:104E5000704E00080000002048020000D001000849
:104E60008050000848020020180900000C020008C9
:104E700002360120EFC1C081C1400101C3C00380DF
:104E80000241C201C6C006800741C70005C1C581F5
:104E9000C4400401CCC00C800D41CD000FC1CF81B6
:104EA000CE400E000AC1CA81CB400B01C9C00980A7
:104EB0000841C801D8C018801941D9001BC1DB8145
:104EC000DA401A001EC1DE81DF401F01DDC01D80F7
:104ED0001C41DC0014C1D481D5401501D7C0178016
:104EE0001641D601D2C012801341D30011C1D18125
:104EF000D0401001F0C030803141F10033C1F38166
:104F0000F240320036C1F681F7403701F5C03580F6
:104F10003441F4003CC1FC81FD403D01FFC03F80B5
:104F20003E41FE01FAC03A803B41FB0039C1F981A4
:104F3000F840380028C1E881E9402901EBC02B8006
:104F40002A41EA01EEC02E802F41EF002DC1ED81F4
:104F5000EC402C01E4C024802541E50027C1E78115
:104F6000E6402620F022C1E281E3402301E1C02196
:104F7000802041E001A0C060806141A10063C1A325
:104F800081A240620066C1A681A7406701A5C065F5
:104F9000806441A4006CC1AC81AD406D01AFC06FB5
:104FA000806E41AE01AAC06A806B41AB0069C1A9A5
:104FB00081A840680078C1B881B9407901BBC07B45
:104FC000807A41BA01BEC07E807F41BF007DC1BDF5
:104FD00081BC407C01B4C074807541B50077C1B715
:104FE00081B640760072C1B281B3407301B1C07125
:104FF000807041B00050C190819140510193C053E5
:10500000805241920196C056805741970055C195F4
:1050100081944054019CC05C805D419D005FC19FB4
:10502000819E405E005AC19A819B405B0199C059A4
:10503000805841980188C04880494189004BC18B04
:10504000818A404A004EC18E818F404F018DC04DF4
:10505000804C418C502044C184818540450187C0EB
:1050600047804641860182C042804341830041C15E
:1050700081818040404201921014127A00000000A9
:040000050800019559
:00000001FF
